{
  "contractName": "Controller",
  "abi": [
    {
      "anonymous": false,
      "inputs": [
        {
          "indexed": true,
          "internalType": "address",
          "name": "oldGovernance",
          "type": "address"
        },
        {
          "indexed": true,
          "internalType": "address",
          "name": "newGovernance",
          "type": "address"
        }
      ],
      "name": "GovernanceUpdated",
      "type": "event"
    },
    {
      "anonymous": false,
      "inputs": [
        {
          "indexed": true,
          "internalType": "uint256",
          "name": "vaultId",
          "type": "uint256"
        },
        {
          "indexed": true,
          "internalType": "address",
          "name": "rewardToken",
          "type": "address"
        },
        {
          "indexed": false,
          "internalType": "uint256",
          "name": "rewardAmount",
          "type": "uint256"
        }
      ],
      "name": "RewardAdded",
      "type": "event"
    },
    {
      "anonymous": false,
      "inputs": [
        {
          "indexed": true,
          "internalType": "address",
          "name": "oldRewardToken",
          "type": "address"
        },
        {
          "indexed": true,
          "internalType": "address",
          "name": "newRewardToken",
          "type": "address"
        }
      ],
      "name": "RewardTokenUpdated",
      "type": "event"
    },
    {
      "anonymous": false,
      "inputs": [
        {
          "indexed": true,
          "internalType": "address",
          "name": "oldTreasury",
          "type": "address"
        },
        {
          "indexed": true,
          "internalType": "address",
          "name": "newTreasury",
          "type": "address"
        }
      ],
      "name": "TreasuryUpdated",
      "type": "event"
    },
    {
      "anonymous": false,
      "inputs": [
        {
          "indexed": true,
          "internalType": "uint256",
          "name": "vaultId",
          "type": "uint256"
        },
        {
          "indexed": true,
          "internalType": "address",
          "name": "vaultAddress",
          "type": "address"
        },
        {
          "indexed": true,
          "internalType": "address",
          "name": "vaultToken",
          "type": "address"
        }
      ],
      "name": "VaultAdded",
      "type": "event"
    },
    {
      "inputs": [],
      "name": "governance",
      "outputs": [
        {
          "internalType": "address",
          "name": "",
          "type": "address"
        }
      ],
      "stateMutability": "view",
      "type": "function"
    },
    {
      "inputs": [],
      "name": "numVaults",
      "outputs": [
        {
          "internalType": "uint256",
          "name": "",
          "type": "uint256"
        }
      ],
      "stateMutability": "view",
      "type": "function"
    },
    {
      "inputs": [],
      "name": "rewardToken",
      "outputs": [
        {
          "internalType": "address",
          "name": "",
          "type": "address"
        }
      ],
      "stateMutability": "view",
      "type": "function"
    },
    {
      "inputs": [],
      "name": "treasury",
      "outputs": [
        {
          "internalType": "address",
          "name": "",
          "type": "address"
        }
      ],
      "stateMutability": "view",
      "type": "function"
    },
    {
      "inputs": [
        {
          "internalType": "uint256",
          "name": "",
          "type": "uint256"
        }
      ],
      "name": "vaults",
      "outputs": [
        {
          "internalType": "address",
          "name": "",
          "type": "address"
        }
      ],
      "stateMutability": "view",
      "type": "function"
    },
    {
      "inputs": [
        {
          "internalType": "address",
          "name": "_rewardToken",
          "type": "address"
        },
        {
          "internalType": "address",
          "name": "_treasury",
          "type": "address"
        }
      ],
      "name": "initialize",
      "outputs": [],
      "stateMutability": "nonpayable",
      "type": "function"
    },
    {
      "inputs": [
        {
          "internalType": "address",
          "name": "_governance",
          "type": "address"
        }
      ],
      "name": "setGovernance",
      "outputs": [],
      "stateMutability": "nonpayable",
      "type": "function"
    },
    {
      "inputs": [
        {
          "internalType": "address",
          "name": "_rewardToken",
          "type": "address"
        }
      ],
      "name": "setRewardToken",
      "outputs": [],
      "stateMutability": "nonpayable",
      "type": "function"
    },
    {
      "inputs": [
        {
          "internalType": "address",
          "name": "_treasury",
          "type": "address"
        }
      ],
      "name": "setTreasury",
      "outputs": [],
      "stateMutability": "nonpayable",
      "type": "function"
    },
    {
      "inputs": [
        {
          "internalType": "address",
          "name": "_vault",
          "type": "address"
        }
      ],
      "name": "addVault",
      "outputs": [
        {
          "internalType": "uint256",
          "name": "",
          "type": "uint256"
        }
      ],
      "stateMutability": "nonpayable",
      "type": "function"
    },
    {
      "inputs": [
        {
          "internalType": "uint256",
          "name": "_vaultId",
          "type": "uint256"
        },
        {
          "internalType": "uint256",
          "name": "_rewardAmount",
          "type": "uint256"
        }
      ],
      "name": "addRewards",
      "outputs": [],
      "stateMutability": "nonpayable",
      "type": "function"
    }
  ],
  "bytecode": "0x608060405234801561001057600080fd5b50610e0d806100206000396000f3fe608060405234801561001057600080fd5b50600436106100e6576000357c0100000000000000000000000000000000000000000000000000000000900480638aee81271161009e578063f0f4426011610078578063f0f4426014610231578063f7c618c114610264578063fc41aa091461026c576100e6565b80638aee8127146101ae5780638c64ea4a146101e1578063ab033ea9146101fe576100e6565b8063485cc955116100cf578063485cc955146101385780635aa6e6751461017557806361d027b3146101a6576100e6565b8063256b5a02146100eb578063264a620814610130575b600080fd5b61011e6004803603602081101561010157600080fd5b503573ffffffffffffffffffffffffffffffffffffffff1661028f565b60408051918252519081900360200190f35b61011e610490565b6101736004803603604081101561014e57600080fd5b5073ffffffffffffffffffffffffffffffffffffffff81358116916020013516610496565b005b61017d610694565b6040805173ffffffffffffffffffffffffffffffffffffffff9092168252519081900360200190f35b61017d6106b6565b610173600480360360208110156101c457600080fd5b503573ffffffffffffffffffffffffffffffffffffffff166106d2565b61017d600480360360208110156101f757600080fd5b5035610828565b6101736004803603602081101561021457600080fd5b503573ffffffffffffffffffffffffffffffffffffffff16610850565b6101736004803603602081101561024757600080fd5b503573ffffffffffffffffffffffffffffffffffffffff1661093f565b61017d610a93565b6101736004803603604081101561028257600080fd5b5080359060200135610aaf565b6000805462010000900473ffffffffffffffffffffffffffffffffffffffff16331461030a5760408051600080516020610db8833981519152815260206004820152600e60248201527f6e6f7420676f7665726e616e6365000000000000000000000000000000000000604482015290519081900360640190fd5b73ffffffffffffffffffffffffffffffffffffffff821661037a5760408051600080516020610db8833981519152815260206004820152600d60248201527f7661756c74206e6f742073657400000000000000000000000000000000000000604482015290519081900360640190fd5b60038054600081815260046020818152604092839020805473ffffffffffffffffffffffffffffffffffffffff191673ffffffffffffffffffffffffffffffffffffffff8916908117909155855460010190955582517f1f1fcd510000000000000000000000000000000000000000000000000000000081529251939493631f1fcd51938084019390829003018186803b15801561041757600080fd5b505afa15801561042b573d6000803e3d6000fd5b505050506040513d602081101561044157600080fd5b505160405173ffffffffffffffffffffffffffffffffffffffff9182169185169083907feafdb476f6eca2c1eb582b9efc2c417bf20f1dd5fb58e93675cbf233fdac7bb790600090a492915050565b60035481565b600054610100900460ff16806104af57506104af610d83565b806104bd575060005460ff16155b61050057604051600080516020610db8833981519152815260040180806020018281038252602e815260200180610d8a602e913960400191505060405180910390fd5b600054610100900460ff1615801561052b576000805460ff1961ff0019909116610100171660011790555b73ffffffffffffffffffffffffffffffffffffffff831661059b5760408051600080516020610db8833981519152815260206004820152601460248201527f72657761726420746f6b656e206e6f7420736574000000000000000000000000604482015290519081900360640190fd5b73ffffffffffffffffffffffffffffffffffffffff821661060b5760408051600080516020610db8833981519152815260206004820152601060248201527f7472656173757279206e6f742073657400000000000000000000000000000000604482015290519081900360640190fd5b6000805462010000330275ffffffffffffffffffffffffffffffffffffffff0000199091161790556002805473ffffffffffffffffffffffffffffffffffffffff84811673ffffffffffffffffffffffffffffffffffffffff19928316179092556001805492861692909116919091179055801561068f576000805461ff00191690555b505050565b60005462010000900473ffffffffffffffffffffffffffffffffffffffff1681565b60025473ffffffffffffffffffffffffffffffffffffffff1681565b60005462010000900473ffffffffffffffffffffffffffffffffffffffff16331461074c5760408051600080516020610db8833981519152815260206004820152600e60248201527f6e6f7420676f7665726e616e6365000000000000000000000000000000000000604482015290519081900360640190fd5b73ffffffffffffffffffffffffffffffffffffffff81166107bc5760408051600080516020610db8833981519152815260206004820152601460248201527f72657761726420746f6b656e206e6f7420736574000000000000000000000000604482015290519081900360640190fd5b6001805473ffffffffffffffffffffffffffffffffffffffff83811673ffffffffffffffffffffffffffffffffffffffff19831681179093556040519116919082907f906ff2422a6ffa134f2d7ccaffd446bc0c583a5cb6615749b4b2836942a5fea890600090a35050565b60046020526000908152604090205473ffffffffffffffffffffffffffffffffffffffff1681565b60005462010000900473ffffffffffffffffffffffffffffffffffffffff1633146108ca5760408051600080516020610db8833981519152815260206004820152600e60248201527f6e6f7420676f7665726e616e6365000000000000000000000000000000000000604482015290519081900360640190fd5b6000805473ffffffffffffffffffffffffffffffffffffffff8381166201000081810275ffffffffffffffffffffffffffffffffffffffff000019851617855560405193049190911692909183917f434a2db650703b36c824e745330d6397cdaa9ee2cc891a4938ae853e1c50b68d91a35050565b60005462010000900473ffffffffffffffffffffffffffffffffffffffff1633146109b95760408051600080516020610db8833981519152815260206004820152600e60248201527f6e6f7420676f7665726e616e6365000000000000000000000000000000000000604482015290519081900360640190fd5b73ffffffffffffffffffffffffffffffffffffffff8116610a295760408051600080516020610db8833981519152815260206004820152601060248201527f7472656173757279206e6f742073657400000000000000000000000000000000604482015290519081900360640190fd5b6002805473ffffffffffffffffffffffffffffffffffffffff191673ffffffffffffffffffffffffffffffffffffffff831690811790915560405182919081907f4ab5be82436d353e61ca18726e984e561f5c1cc7c6d38b29d2553c790434705a90600090a35050565b60015473ffffffffffffffffffffffffffffffffffffffff1681565b60005462010000900473ffffffffffffffffffffffffffffffffffffffff163314610b295760408051600080516020610db8833981519152815260206004820152600e60248201527f6e6f7420676f7665726e616e6365000000000000000000000000000000000000604482015290519081900360640190fd5b60008281526004602052604090205473ffffffffffffffffffffffffffffffffffffffff16610ba75760408051600080516020610db8833981519152815260206004820152600f60248201527f7661756c74206e6f742065786973740000000000000000000000000000000000604482015290519081900360640190fd5b60008111610c045760408051600080516020610db8833981519152815260206004820152600b60248201527f7a65726f20616d6f756e74000000000000000000000000000000000000000000604482015290519081900360640190fd5b60008281526004602081905260408083205460015482517f40c10f1900000000000000000000000000000000000000000000000000000000815273ffffffffffffffffffffffffffffffffffffffff92831694810185905260248101879052925193949116926340c10f1992604480820193929182900301818387803b158015610c8d57600080fd5b505af1158015610ca1573d6000803e3d6000fd5b505050508073ffffffffffffffffffffffffffffffffffffffff16633c6b16ab836040518263ffffffff167c010000000000000000000000000000000000000000000000000000000002815260040180828152602001915050600060405180830381600087803b158015610d1457600080fd5b505af1158015610d28573d6000803e3d6000fd5b505060015460408051868152905173ffffffffffffffffffffffffffffffffffffffff90921693508692507f0bb21cfddc3f8bd27069c32bb00be0ad26a02576b5a080444b0987140c3baa15919081900360200190a3505050565b303b159056fe496e697469616c697a61626c653a20636f6e747261637420697320616c726561647920696e697469616c697a656408c379a000000000000000000000000000000000000000000000000000000000a2646970667358221220cf0dabeedf9797d7e167f7f0bf15d5776128d10c1ad04d31396ea600dea9059a64736f6c634300060c0033",
  "source": "// SPDX-License-Identifier: MIT\npragma solidity 0.6.12;\n\nimport \"@openzeppelin/contracts-upgradeable/math/SafeMathUpgradeable.sol\";\nimport \"@openzeppelin/contracts-upgradeable/proxy/Initializable.sol\";\n\nimport \"./interfaces/IController.sol\";\nimport \"./interfaces/IVault.sol\";\nimport \"./interfaces/IERC20Mintable.sol\";\n\n/**\n * @notice Controller for all vaults.\n *\n * Controller maintains the list of vaults, manages vaults' shared\n * properties, e.g. governance and treasury address, and performs\n * reward allocation to vaults.\n */\ncontract Controller is IController, Initializable {\n    using SafeMathUpgradeable for uint256;\n\n    event GovernanceUpdated(address indexed oldGovernance, address indexed newGovernance);\n    event RewardTokenUpdated(address indexed oldRewardToken, address indexed newRewardToken);\n    event TreasuryUpdated(address indexed oldTreasury, address indexed newTreasury);\n    event VaultAdded(uint256 indexed vaultId, address indexed vaultAddress, address indexed vaultToken);\n    event RewardAdded(uint256 indexed vaultId, address indexed rewardToken, uint256 rewardAmount);\n\n    address public override governance;\n    address public override rewardToken;\n    address public override treasury;\n    uint256 public override numVaults;\n    mapping(uint256 => address) public override vaults;\n\n    /**\n     * @dev Initializes the Controller contract. Can be invoked only once.\n     * @param _rewardToken Additional reward token (i.e. ACoconut) to the vault users.\n     * @param _treasury ACoconut treasury that holds fees collected from vaults.\n     */\n    function initialize(address _rewardToken, address _treasury) public initializer {\n        require(_rewardToken != address(0x0), \"reward token not set\");\n        require(_treasury != address(0x0), \"treasury not set\");\n        \n        governance = msg.sender;\n        treasury = _treasury;\n        rewardToken = _rewardToken;\n    }\n\n    /**\n     * @dev Updates the govenance address.\n     * Only governance can set a new governance. The governance can be renounced\n     * by setting a zero address.\n     */\n    function setGovernance(address _governance) public {\n        require(msg.sender == governance, \"not governance\");\n\n        address oldGovernance = governance;\n        governance = _governance;\n        emit GovernanceUpdated(oldGovernance, _governance);\n    }\n\n    /**\n     * @dev Updates the rewards token.\n     * Only governance can set a new reward token.\n     */\n    function setRewardToken(address _rewardToken) public {\n        require(msg.sender == governance, \"not governance\");\n        require(_rewardToken != address(0x0), \"reward token not set\");\n\n        address oldRewardToken = rewardToken;\n        rewardToken = _rewardToken;\n        emit RewardTokenUpdated(oldRewardToken, _rewardToken);\n    }\n\n    /**\n     * @dev Updates the treasury address.\n     * Only governance can set a new treasury address.\n     */\n    function setTreasury(address _treasury) public {\n        require(msg.sender == governance, \"not governance\");\n        require(_treasury != address(0x0), \"treasury not set\");\n\n        address oldTreasury = _treasury;\n        treasury = _treasury;\n        emit TreasuryUpdated(oldTreasury, _treasury);\n    }\n\n    /**\n     * @dev Add a new vault to the controller.\n     * Note that there is no duplicate check here, which means one vault might\n     * be represented by multiple vault IDs.\n     * @return ID of the newly added vault.\n     */\n    function addVault(address _vault) public returns (uint256) {\n        require(msg.sender == governance, \"not governance\");\n        require(_vault != address(0x0), \"vault not set\");\n\n        uint256 vaultId = numVaults;\n        vaults[vaultId] = _vault;\n        numVaults++;\n        emit VaultAdded(vaultId, _vault, IVault(_vault).want());\n\n        return vaultId;\n    }\n\n    /**\n     * @dev Add new rewards to a rewarded vault.\n     * @param _vaultId ID of the vault to have reward.\n     * @param _rewardAmount Amount of the reward token to add.\n     */\n    function addRewards(uint256 _vaultId, uint256 _rewardAmount) public {\n        require(msg.sender == governance, \"not governance\");\n        require(vaults[_vaultId] != address(0x0), \"vault not exist\");\n        require(_rewardAmount > 0, \"zero amount\");\n\n        address vault = vaults[_vaultId];\n        IERC20Mintable(rewardToken).mint(vault, _rewardAmount);\n        IVault(vault).notifyRewardAmount(_rewardAmount);\n        emit RewardAdded(_vaultId, rewardToken, _rewardAmount);\n    }\n}",
  "sourcePath": "/Users/shengdading/git/acSaving/contracts/Controller.sol",
  "compiler": {
    "name": "solc",
    "version": "0.6.12+commit.27d51765.Emscripten.clang"
  },
  "schemaVersion": "3.0.23",
  "updatedAt": "2020-12-14T06:27:16.999Z",
  "devdoc": {
    "kind": "dev",
    "methods": {
      "addRewards(uint256,uint256)": {
        "details": "Add new rewards to a rewarded vault.",
        "params": {
          "_rewardAmount": "Amount of the reward token to add.",
          "_vaultId": "ID of the vault to have reward."
        }
      },
      "addVault(address)": {
        "details": "Add a new vault to the controller. Note that there is no duplicate check here, which means one vault might be represented by multiple vault IDs.",
        "returns": {
          "_0": "ID of the newly added vault."
        }
      },
      "initialize(address,address)": {
        "details": "Initializes the Controller contract. Can be invoked only once.",
        "params": {
          "_rewardToken": "Additional reward token (i.e. ACoconut) to the vault users.",
          "_treasury": "ACoconut treasury that holds fees collected from vaults."
        }
      },
      "setGovernance(address)": {
        "details": "Updates the govenance address. Only governance can set a new governance. The governance can be renounced by setting a zero address."
      },
      "setRewardToken(address)": {
        "details": "Updates the rewards token. Only governance can set a new reward token."
      },
      "setTreasury(address)": {
        "details": "Updates the treasury address. Only governance can set a new treasury address."
      }
    },
    "stateVariables": {
      "governance": {
        "details": "Returns the governance address of the Controller. Governance has the greatest right and should be assumed by a Timelock. Controller, all vaults and all strategies share the same governance."
      },
      "numVaults": {
        "details": "Returns the total number of vaults managed by the Controller."
      },
      "rewardToken": {
        "details": "Returns the token served as additional rewards(i.e ACoconut) to vault users."
      },
      "treasury": {
        "details": "Returns the treasury address for vault fees."
      },
      "vaults": {
        "details": "Returns the vault address given the vault ID."
      }
    },
    "version": 1
  },
  "userdoc": {
    "kind": "user",
    "methods": {},
    "notice": "Controller for all vaults. Controller maintains the list of vaults, manages vaults' shared properties, e.g. governance and treasury address, and performs reward allocation to vaults.",
    "version": 1
  }
}