{
  "contractName": "Vault",
  "abi": [
    {
      "anonymous": false,
      "inputs": [
        {
          "indexed": true,
          "internalType": "address",
          "name": "oldStrategy",
          "type": "address"
        },
        {
          "indexed": true,
          "internalType": "address",
          "name": "newStrategy",
          "type": "address"
        }
      ],
      "name": "ActiveStrategyUpdated",
      "type": "event"
    },
    {
      "anonymous": false,
      "inputs": [
        {
          "indexed": true,
          "internalType": "address",
          "name": "owner",
          "type": "address"
        },
        {
          "indexed": true,
          "internalType": "address",
          "name": "spender",
          "type": "address"
        },
        {
          "indexed": false,
          "internalType": "uint256",
          "name": "value",
          "type": "uint256"
        }
      ],
      "name": "Approval",
      "type": "event"
    },
    {
      "anonymous": false,
      "inputs": [
        {
          "indexed": true,
          "internalType": "address",
          "name": "user",
          "type": "address"
        },
        {
          "indexed": true,
          "internalType": "address",
          "name": "token",
          "type": "address"
        },
        {
          "indexed": false,
          "internalType": "uint256",
          "name": "amount",
          "type": "uint256"
        },
        {
          "indexed": false,
          "internalType": "uint256",
          "name": "shareAmount",
          "type": "uint256"
        }
      ],
      "name": "Deposited",
      "type": "event"
    },
    {
      "anonymous": false,
      "inputs": [
        {
          "indexed": true,
          "internalType": "bool",
          "name": "active",
          "type": "bool"
        }
      ],
      "name": "EmergencyModeUpdated",
      "type": "event"
    },
    {
      "anonymous": false,
      "inputs": [
        {
          "indexed": true,
          "internalType": "address",
          "name": "oldStrategist",
          "type": "address"
        },
        {
          "indexed": true,
          "internalType": "address",
          "name": "newStrategist",
          "type": "address"
        }
      ],
      "name": "StrategistUpdated",
      "type": "event"
    },
    {
      "anonymous": false,
      "inputs": [
        {
          "indexed": true,
          "internalType": "address",
          "name": "strategy",
          "type": "address"
        },
        {
          "indexed": true,
          "internalType": "bool",
          "name": "approved",
          "type": "bool"
        }
      ],
      "name": "StrategyUpdated",
      "type": "event"
    },
    {
      "anonymous": false,
      "inputs": [
        {
          "indexed": true,
          "internalType": "address",
          "name": "from",
          "type": "address"
        },
        {
          "indexed": true,
          "internalType": "address",
          "name": "to",
          "type": "address"
        },
        {
          "indexed": false,
          "internalType": "uint256",
          "name": "value",
          "type": "uint256"
        }
      ],
      "name": "Transfer",
      "type": "event"
    },
    {
      "anonymous": false,
      "inputs": [
        {
          "indexed": true,
          "internalType": "address",
          "name": "user",
          "type": "address"
        },
        {
          "indexed": true,
          "internalType": "address",
          "name": "token",
          "type": "address"
        },
        {
          "indexed": false,
          "internalType": "uint256",
          "name": "amount",
          "type": "uint256"
        },
        {
          "indexed": false,
          "internalType": "uint256",
          "name": "shareAmount",
          "type": "uint256"
        }
      ],
      "name": "Withdrawn",
      "type": "event"
    },
    {
      "inputs": [],
      "name": "activeStrategy",
      "outputs": [
        {
          "internalType": "address",
          "name": "",
          "type": "address"
        }
      ],
      "stateMutability": "view",
      "type": "function"
    },
    {
      "inputs": [
        {
          "internalType": "address",
          "name": "owner",
          "type": "address"
        },
        {
          "internalType": "address",
          "name": "spender",
          "type": "address"
        }
      ],
      "name": "allowance",
      "outputs": [
        {
          "internalType": "uint256",
          "name": "",
          "type": "uint256"
        }
      ],
      "stateMutability": "view",
      "type": "function"
    },
    {
      "inputs": [
        {
          "internalType": "address",
          "name": "spender",
          "type": "address"
        },
        {
          "internalType": "uint256",
          "name": "amount",
          "type": "uint256"
        }
      ],
      "name": "approve",
      "outputs": [
        {
          "internalType": "bool",
          "name": "",
          "type": "bool"
        }
      ],
      "stateMutability": "nonpayable",
      "type": "function"
    },
    {
      "inputs": [
        {
          "internalType": "address",
          "name": "",
          "type": "address"
        }
      ],
      "name": "approvedStrategies",
      "outputs": [
        {
          "internalType": "bool",
          "name": "",
          "type": "bool"
        }
      ],
      "stateMutability": "view",
      "type": "function"
    },
    {
      "inputs": [
        {
          "internalType": "address",
          "name": "account",
          "type": "address"
        }
      ],
      "name": "balanceOf",
      "outputs": [
        {
          "internalType": "uint256",
          "name": "",
          "type": "uint256"
        }
      ],
      "stateMutability": "view",
      "type": "function"
    },
    {
      "inputs": [],
      "name": "controller",
      "outputs": [
        {
          "internalType": "address",
          "name": "",
          "type": "address"
        }
      ],
      "stateMutability": "view",
      "type": "function"
    },
    {
      "inputs": [],
      "name": "decimals",
      "outputs": [
        {
          "internalType": "uint8",
          "name": "",
          "type": "uint8"
        }
      ],
      "stateMutability": "view",
      "type": "function"
    },
    {
      "inputs": [
        {
          "internalType": "address",
          "name": "spender",
          "type": "address"
        },
        {
          "internalType": "uint256",
          "name": "subtractedValue",
          "type": "uint256"
        }
      ],
      "name": "decreaseAllowance",
      "outputs": [
        {
          "internalType": "bool",
          "name": "",
          "type": "bool"
        }
      ],
      "stateMutability": "nonpayable",
      "type": "function"
    },
    {
      "inputs": [],
      "name": "emergencyMode",
      "outputs": [
        {
          "internalType": "bool",
          "name": "",
          "type": "bool"
        }
      ],
      "stateMutability": "view",
      "type": "function"
    },
    {
      "inputs": [
        {
          "internalType": "address",
          "name": "spender",
          "type": "address"
        },
        {
          "internalType": "uint256",
          "name": "addedValue",
          "type": "uint256"
        }
      ],
      "name": "increaseAllowance",
      "outputs": [
        {
          "internalType": "bool",
          "name": "",
          "type": "bool"
        }
      ],
      "stateMutability": "nonpayable",
      "type": "function"
    },
    {
      "inputs": [
        {
          "internalType": "address",
          "name": "",
          "type": "address"
        }
      ],
      "name": "lockBlocks",
      "outputs": [
        {
          "internalType": "uint256",
          "name": "",
          "type": "uint256"
        }
      ],
      "stateMutability": "view",
      "type": "function"
    },
    {
      "inputs": [],
      "name": "name",
      "outputs": [
        {
          "internalType": "string",
          "name": "",
          "type": "string"
        }
      ],
      "stateMutability": "view",
      "type": "function"
    },
    {
      "inputs": [],
      "name": "strategist",
      "outputs": [
        {
          "internalType": "address",
          "name": "",
          "type": "address"
        }
      ],
      "stateMutability": "view",
      "type": "function"
    },
    {
      "inputs": [],
      "name": "symbol",
      "outputs": [
        {
          "internalType": "string",
          "name": "",
          "type": "string"
        }
      ],
      "stateMutability": "view",
      "type": "function"
    },
    {
      "inputs": [],
      "name": "totalSupply",
      "outputs": [
        {
          "internalType": "uint256",
          "name": "",
          "type": "uint256"
        }
      ],
      "stateMutability": "view",
      "type": "function"
    },
    {
      "inputs": [],
      "name": "want",
      "outputs": [
        {
          "internalType": "address",
          "name": "",
          "type": "address"
        }
      ],
      "stateMutability": "view",
      "type": "function"
    },
    {
      "inputs": [
        {
          "internalType": "address",
          "name": "_want",
          "type": "address"
        },
        {
          "internalType": "address",
          "name": "_controller",
          "type": "address"
        },
        {
          "internalType": "string",
          "name": "_nameOverride",
          "type": "string"
        },
        {
          "internalType": "string",
          "name": "_symbolOverride",
          "type": "string"
        }
      ],
      "name": "initialize",
      "outputs": [],
      "stateMutability": "nonpayable",
      "type": "function"
    },
    {
      "inputs": [],
      "name": "governance",
      "outputs": [
        {
          "internalType": "address",
          "name": "",
          "type": "address"
        }
      ],
      "stateMutability": "view",
      "type": "function"
    },
    {
      "inputs": [],
      "name": "balance",
      "outputs": [
        {
          "internalType": "uint256",
          "name": "",
          "type": "uint256"
        }
      ],
      "stateMutability": "view",
      "type": "function"
    },
    {
      "inputs": [
        {
          "internalType": "address",
          "name": "_strategist",
          "type": "address"
        }
      ],
      "name": "setStrategist",
      "outputs": [],
      "stateMutability": "nonpayable",
      "type": "function"
    },
    {
      "inputs": [
        {
          "internalType": "bool",
          "name": "_active",
          "type": "bool"
        }
      ],
      "name": "setEmergencyMode",
      "outputs": [],
      "stateMutability": "nonpayable",
      "type": "function"
    },
    {
      "inputs": [
        {
          "internalType": "address",
          "name": "_strategy",
          "type": "address"
        },
        {
          "internalType": "bool",
          "name": "_approved",
          "type": "bool"
        }
      ],
      "name": "setStrategy",
      "outputs": [],
      "stateMutability": "nonpayable",
      "type": "function"
    },
    {
      "inputs": [
        {
          "internalType": "address",
          "name": "_strategy",
          "type": "address"
        }
      ],
      "name": "setActiveStrategy",
      "outputs": [],
      "stateMutability": "nonpayable",
      "type": "function"
    },
    {
      "inputs": [],
      "name": "earn",
      "outputs": [],
      "stateMutability": "nonpayable",
      "type": "function"
    },
    {
      "inputs": [],
      "name": "harvest",
      "outputs": [],
      "stateMutability": "nonpayable",
      "type": "function"
    },
    {
      "inputs": [
        {
          "internalType": "uint256",
          "name": "_amount",
          "type": "uint256"
        }
      ],
      "name": "deposit",
      "outputs": [],
      "stateMutability": "nonpayable",
      "type": "function"
    },
    {
      "inputs": [
        {
          "internalType": "uint256",
          "name": "_shares",
          "type": "uint256"
        }
      ],
      "name": "withdraw",
      "outputs": [],
      "stateMutability": "nonpayable",
      "type": "function"
    },
    {
      "inputs": [
        {
          "internalType": "address",
          "name": "recipient",
          "type": "address"
        },
        {
          "internalType": "uint256",
          "name": "amount",
          "type": "uint256"
        }
      ],
      "name": "transfer",
      "outputs": [
        {
          "internalType": "bool",
          "name": "",
          "type": "bool"
        }
      ],
      "stateMutability": "nonpayable",
      "type": "function"
    },
    {
      "inputs": [
        {
          "internalType": "address",
          "name": "sender",
          "type": "address"
        },
        {
          "internalType": "address",
          "name": "recipient",
          "type": "address"
        },
        {
          "internalType": "uint256",
          "name": "amount",
          "type": "uint256"
        }
      ],
      "name": "transferFrom",
      "outputs": [
        {
          "internalType": "bool",
          "name": "",
          "type": "bool"
        }
      ],
      "stateMutability": "nonpayable",
      "type": "function"
    },
    {
      "inputs": [],
      "name": "salvage",
      "outputs": [],
      "stateMutability": "nonpayable",
      "type": "function"
    },
    {
      "inputs": [
        {
          "internalType": "address",
          "name": "_tokenAddress",
          "type": "address"
        }
      ],
      "name": "salvageToken",
      "outputs": [],
      "stateMutability": "nonpayable",
      "type": "function"
    },
    {
      "inputs": [],
      "name": "getPricePerFullShare",
      "outputs": [
        {
          "internalType": "uint256",
          "name": "",
          "type": "uint256"
        }
      ],
      "stateMutability": "view",
      "type": "function"
    },
    {
      "inputs": [
        {
          "internalType": "uint256",
          "name": "_rewardAmount",
          "type": "uint256"
        }
      ],
      "name": "notifyRewardAmount",
      "outputs": [],
      "stateMutability": "nonpayable",
      "type": "function"
    }
  ],
  "bytecode": "0x608060405234801561001057600080fd5b506135f8806100206000396000f3fe608060405234801561001057600080fd5b5060043610610228576000357c0100000000000000000000000000000000000000000000000000000000900480635fc4406e11610147578063baa82a34116100da578063cd3c4255116100a9578063d389800f1161008e578063d389800f14610718578063dd62ed3e14610720578063f77c47911461074e57610228565b8063cd3c4255146106ea578063cf80dd9e146106f257610228565b8063baa82a3414610651578063be32b3f81461067f578063c613aec01461069e578063c7b9d530146106c457610228565b8063a457c2d711610116578063a457c2d7146105d4578063a9059cbb14610600578063b69ef8a81461062c578063b6b55f251461063457610228565b80635fc4406e1461057857806370a082311461059e57806377c7b8fc146105c457806395d89b41146105cc57610228565b80632016a0d2116101bf578063395093511161018e578063395093511461051f5780633c6b16ab1461054b5780634641257d146105685780635aa6e6751461057057610228565b80632016a0d21461036857806323b872dd146104ae5780632e1a7d4d146104e4578063313ce5671461050157610228565b80631896e1a4116101fb5780631896e1a41461030c5780631e534906146103325780631f1fcd511461033c5780631fe4a6861461036057610228565b806306fdde031461022d5780630905f560146102aa578063095ea7b3146102c657806318160ddd146102f2575b600080fd5b610235610756565b6040805160208082528351818301528351919283929083019185019080838360005b8381101561026f578181015183820152602001610257565b50505050905090810190601f16801561029c5780820380516001836020036101000a031916815260200191505b509250505060405180910390f35b6102b26107ed565b604080519115158252519081900360200190f35b6102b2600480360360408110156102dc57600080fd5b50600160a060020a03813516906020013561080e565b6102fa61082c565b60408051918252519081900360200190f35b6102fa6004803603602081101561032257600080fd5b5035600160a060020a0316610832565b61033a610844565b005b610344610913565b60408051600160a060020a039092168252519081900360200190f35b610344610922565b61033a6004803603608081101561037e57600080fd5b600160a060020a0382358116926020810135909116918101906060810160408201356401000000008111156103b257600080fd5b8201836020820111156103c457600080fd5b803590602001918460018302840111640100000000831117156103e657600080fd5b91908080601f016020809104026020016040519081016040528093929190818152602001838380828437600092019190915250929594936020810193503591505064010000000081111561043957600080fd5b82018360208201111561044b57600080fd5b8035906020019184600183028401116401000000008311171561046d57600080fd5b91908080601f016020809104026020016040519081016040528093929190818152602001838380828437600092019190915250929550610931945050505050565b6102b2600480360360608110156104c457600080fd5b50600160a060020a03813581169160208101359091169060400135610f3e565b61033a600480360360208110156104fa57600080fd5b5035610fc1565b61050961138a565b6040805160ff9092168252519081900360200190f35b6102b26004803603604081101561053557600080fd5b50600160a060020a038135169060200135611393565b61033a6004803603602081101561056157600080fd5b50356113e6565b61033a6113e9565b610344611554565b61033a6004803603602081101561058e57600080fd5b5035600160a060020a03166115e3565b6102fa600480360360208110156105b457600080fd5b5035600160a060020a03166118b8565b6102fa6118d3565b61023561190d565b6102b2600480360360408110156105ea57600080fd5b50600160a060020a03813516906020013561196e565b6102b26004803603604081101561061657600080fd5b50600160a060020a0381351690602001356119d6565b6102fa611a4e565b61033a6004803603602081101561064a57600080fd5b5035611c1c565b61033a6004803603604081101561066757600080fd5b50600160a060020a0381351690602001351515611fe0565b61033a6004803603602081101561069557600080fd5b503515156120a4565b6102b2600480360360208110156106b457600080fd5b5035600160a060020a0316612189565b61033a600480360360208110156106da57600080fd5b5035600160a060020a031661219e565b61034461226d565b61033a6004803603602081101561070857600080fd5b5035600160a060020a031661227c565b61033a612413565b6102fa6004803603604081101561073657600080fd5b50600160a060020a038135811691602001351661265b565b610344612686565b60368054604080516020601f60026000196101006001881615020190951694909404938401819004810282018101909252828152606093909290918301828280156107e25780601f106107b7576101008083540402835291602001916107e2565b820191906000526020600020905b8154815290600101906020018083116107c557829003601f168201915b505050505090505b90565b60695474010000000000000000000000000000000000000000900460ff1681565b600061082261081b612695565b8484612699565b5060015b92915050565b60355490565b606a6020526000908152604090205481565b61084c611554565b600160a060020a031633600160a060020a031614806108755750606754600160a060020a031633145b6108c9576040805160e560020a62461bcd02815260206004820152600e60248201527f6e6f742073747261746567697374000000000000000000000000000000000000604482015290519081900360640190fd5b303160006108d5611554565b604051909150600160a060020a0382169083156108fc029084906000818181858888f1935050505015801561090e573d6000803e3d6000fd5b505050565b606554600160a060020a031681565b606754600160a060020a031681565b600054610100900460ff168061094a575061094a61278b565b80610958575060005460ff16155b6109965760405160e560020a62461bcd02815260040180806020018281038252602e815260200180613493602e913960400191505060405180910390fd5b600054610100900460ff161580156109c1576000805460ff1961ff0019909116610100171660011790555b600160a060020a038516610a1f576040805160e560020a62461bcd02815260206004820152600c60248201527f77616e74206e6f74207365740000000000000000000000000000000000000000604482015290519081900360640190fd5b600160a060020a038416610a7d576040805160e560020a62461bcd02815260206004820152601260248201527f636f6e74726f6c6c6572206e6f74207365740000000000000000000000000000604482015290519081900360640190fd5b60658054600160a060020a0380881673ffffffffffffffffffffffffffffffffffffffff19928316179092556066805492871692821692909217909155606780549091163317905582518590606090819015610adb57859150610cae565b82600160a060020a03166306fdde036040518163ffffffff167c010000000000000000000000000000000000000000000000000000000002815260040160006040518083038186803b158015610b3057600080fd5b505afa158015610b44573d6000803e3d6000fd5b505050506040513d6000823e601f3d908101601f191682016040526020811015610b6d57600080fd5b8101908080516040519392919084640100000000821115610b8d57600080fd5b908301906020820185811115610ba257600080fd5b8251640100000000811182820188101715610bbc57600080fd5b82525081516020918201929091019080838360005b83811015610be9578181015183820152602001610bd1565b50505050905090810190601f168015610c165780820380516001836020036101000a031916815260200191505b5060405250505060405160200180807f41436f636f6e757420000000000000000000000000000000000000000000000081525060090182805190602001908083835b60208310610c775780518252601f199092019160209182019101610c58565b6001836020036101000a03801982511681845116808217855250505050505090500191505060405160208183030381529060405291505b845115610cbc575083610e8f565b82600160a060020a03166395d89b416040518163ffffffff167c010000000000000000000000000000000000000000000000000000000002815260040160006040518083038186803b158015610d1157600080fd5b505afa158015610d25573d6000803e3d6000fd5b505050506040513d6000823e601f3d908101601f191682016040526020811015610d4e57600080fd5b8101908080516040519392919084640100000000821115610d6e57600080fd5b908301906020820185811115610d8357600080fd5b8251640100000000811182820188101715610d9d57600080fd5b82525081516020918201929091019080838360005b83811015610dca578181015183820152602001610db2565b50505050905090810190601f168015610df75780820380516001836020036101000a031916815260200191505b5060405250505060405160200180807f616300000000000000000000000000000000000000000000000000000000000081525060020182805190602001908083835b60208310610e585780518252601f199092019160209182019101610e39565b6001836020036101000a03801982511681845116808217855250505050505090500191505060405160208183030381529060405290505b610e998282612791565b610f2283600160a060020a031663313ce5676040518163ffffffff167c010000000000000000000000000000000000000000000000000000000002815260040160206040518083038186803b158015610ef157600080fd5b505afa158015610f05573d6000803e3d6000fd5b505050506040513d6020811015610f1b57600080fd5b5051612849565b5050508015610f37576000805461ff00191690555b5050505050565b336000908152606a60205260408120544311610fa4576040805160e560020a62461bcd02815260206004820152600c60248201527f626c6f636b206c6f636b65640000000000000000000000000000000000000000604482015290519081900360640190fd5b610fac61285f565b610fb7848484612873565b90505b9392505050565b336000908152606a60205260409020544311611027576040805160e560020a62461bcd02815260206004820152600c60248201527f626c6f636b206c6f636b65640000000000000000000000000000000000000000604482015290519081900360640190fd5b6000811161107f576040805160e560020a62461bcd02815260206004820152600b60248201527f7a65726f20616d6f756e74000000000000000000000000000000000000000000604482015290519081900360640190fd5b606554600160a060020a03166000198214156110a15761109e336118b8565b91505b60006110c66110ae61082c565b6110c0856110ba611a4e565b906128f5565b90612951565b90506110d23384612993565b600082600160a060020a03166370a08231306040518263ffffffff167c01000000000000000000000000000000000000000000000000000000000281526004018082600160a060020a0316815260200191505060206040518083038186803b15801561113d57600080fd5b505afa158015611151573d6000803e3d6000fd5b505050506040513d602081101561116757600080fd5b505190508181101561132057600061117f8383612a92565b606954909150600160a060020a03166111e2576040805160e560020a62461bcd02815260206004820152600b60248201527f6e6f207374726174656779000000000000000000000000000000000000000000604482015290519081900360640190fd5b606954604080517f2e1a7d4d000000000000000000000000000000000000000000000000000000008152600481018490529051600160a060020a0390921691632e1a7d4d9160248082019260009290919082900301818387803b15801561124857600080fd5b505af115801561125c573d6000803e3d6000fd5b50505050600084600160a060020a03166370a08231306040518263ffffffff167c01000000000000000000000000000000000000000000000000000000000281526004018082600160a060020a0316815260200191505060206040518083038186803b1580156112cb57600080fd5b505afa1580156112df573d6000803e3d6000fd5b505050506040513d60208110156112f557600080fd5b5051905060006113058285612a92565b90508281101561131c576113198482612ad4565b94505b5050505b611334600160a060020a0384163384612b31565b61133c61285f565b60408051838152602081018690528151600160a060020a0386169233927f91fb9d98b786c57d74c099ccd2beca1739e9f6a81fb49001ca465c4b7591bbe2929081900390910190a350505050565b60385460ff1690565b60006108226113a0612695565b846113e185603460006113b1612695565b600160a060020a03908116825260208083019390935260409182016000908120918c168152925290205490612ad4565b612699565b50565b6113f1611554565b600160a060020a031633600160a060020a0316148061141a5750606754600160a060020a031633145b61146e576040805160e560020a62461bcd02815260206004820152600e60248201527f6e6f742073747261746567697374000000000000000000000000000000000000604482015290519081900360640190fd5b606954600160a060020a03166114ce576040805160e560020a62461bcd02815260206004820152600b60248201527f6e6f207374726174656779000000000000000000000000000000000000000000604482015290519081900360640190fd5b606960009054906101000a9004600160a060020a0316600160a060020a0316634641257d6040518163ffffffff167c0100000000000000000000000000000000000000000000000000000000028152600401600060405180830381600087803b15801561153a57600080fd5b505af115801561154e573d6000803e3d6000fd5b50505050565b606654604080517f5aa6e6750000000000000000000000000000000000000000000000000000000081529051600092600160a060020a031691635aa6e675916004808301926020929190829003018186803b1580156115b257600080fd5b505afa1580156115c6573d6000803e3d6000fd5b505050506040513d60208110156115dc57600080fd5b5051905090565b6115eb611554565b600160a060020a031633600160a060020a031614806116145750606754600160a060020a031633145b611668576040805160e560020a62461bcd02815260206004820152600e60248201527f6e6f742073747261746567697374000000000000000000000000000000000000604482015290519081900360640190fd5b60695474010000000000000000000000000000000000000000900460ff16156116db576040805160e560020a62461bcd02815260206004820152600e60248201527f656d657267656e6379206d6f6465000000000000000000000000000000000000604482015290519081900360640190fd5b600160a060020a03811615806117095750600160a060020a03811660009081526068602052604090205460ff165b61175d576040805160e560020a62461bcd02815260206004820152601560248201527f7374726174656779206e6f7420617070726f7665640000000000000000000000604482015290519081900360640190fd5b606954600160a060020a039081169082168114156117c5576040805160e560020a62461bcd02815260206004820152600d60248201527f73616d6520737472617465677900000000000000000000000000000000000000604482015290519081900360640190fd5b600160a060020a038116156118445780600160a060020a031663853828b66040518163ffffffff167c0100000000000000000000000000000000000000000000000000000000028152600401600060405180830381600087803b15801561182b57600080fd5b505af115801561183f573d6000803e3d6000fd5b505050505b6069805473ffffffffffffffffffffffffffffffffffffffff1916600160a060020a038416179055611874612413565b81600160a060020a031681600160a060020a03167fc42b0e19f059051fce280c5bc0512575b6b520296125f485bf137a3f0f3b077860405160405180910390a35050565b600160a060020a031660009081526033602052604090205490565b60006118dd61082c565b6118e9575060006107ea565b6119086118f461082c565b6110c0670de0b6b3a76400006110ba611a4e565b905090565b60378054604080516020601f60026000196101006001881615020190951694909404938401819004810282018101909252828152606093909290918301828280156107e25780601f106107b7576101008083540402835291602001916107e2565b600061082261197b612695565b846113e18560405180606001604052806025815260200161359e60259139603460006119a5612695565b600160a060020a03908116825260208083019390935260409182016000908120918d16815292529020549190612bb1565b336000908152606a60205260408120544311611a3c576040805160e560020a62461bcd02815260206004820152600c60248201527f626c6f636b206c6f636b65640000000000000000000000000000000000000000604482015290519081900360640190fd5b611a4461285f565b610fba8383612c4b565b606554606954600091600160a060020a03908116911615611b8a57606954604080517f722713f70000000000000000000000000000000000000000000000000000000081529051611b8592600160a060020a03169163722713f7916004808301926020929190829003018186803b158015611ac857600080fd5b505afa158015611adc573d6000803e3d6000fd5b505050506040513d6020811015611af257600080fd5b5051604080517f70a082310000000000000000000000000000000000000000000000000000000081523060048201529051600160a060020a038516916370a08231916024808301926020929190829003018186803b158015611b5357600080fd5b505afa158015611b67573d6000803e3d6000fd5b505050506040513d6020811015611b7d57600080fd5b505190612ad4565b611c16565b604080517f70a082310000000000000000000000000000000000000000000000000000000081523060048201529051600160a060020a038316916370a08231916024808301926020929190829003018186803b158015611be957600080fd5b505afa158015611bfd573d6000803e3d6000fd5b505050506040513d6020811015611c1357600080fd5b50515b91505090565b60695474010000000000000000000000000000000000000000900460ff1615611c8f576040805160e560020a62461bcd02815260206004820152600e60248201527f656d657267656e6379206d6f6465000000000000000000000000000000000000604482015290519081900360640190fd5b336000908152606a60205260409020544311611cf5576040805160e560020a62461bcd02815260206004820152600c60248201527f626c6f636b206c6f636b65640000000000000000000000000000000000000000604482015290519081900360640190fd5b60008111611d4d576040805160e560020a62461bcd02815260206004820152600b60248201527f7a65726f20616d6f756e74000000000000000000000000000000000000000000604482015290519081900360640190fd5b606554600160a060020a0316600019821415611df157604080517f70a082310000000000000000000000000000000000000000000000000000000081523360048201529051600160a060020a038316916370a08231916024808301926020929190829003018186803b158015611dc257600080fd5b505afa158015611dd6573d6000803e3d6000fd5b505050506040513d6020811015611dec57600080fd5b505191505b6000611dfb611a4e565b9050600082600160a060020a03166370a08231306040518263ffffffff167c01000000000000000000000000000000000000000000000000000000000281526004018082600160a060020a0316815260200191505060206040518083038186803b158015611e6857600080fd5b505afa158015611e7c573d6000803e3d6000fd5b505050506040513d6020811015611e9257600080fd5b50519050611eab600160a060020a038416333087612c5f565b600083600160a060020a03166370a08231306040518263ffffffff167c01000000000000000000000000000000000000000000000000000000000281526004018082600160a060020a0316815260200191505060206040518083038186803b158015611f1657600080fd5b505afa158015611f2a573d6000803e3d6000fd5b505050506040513d6020811015611f4057600080fd5b50519050611f4e8183612a92565b94506000611f5a61082c565b611f65575084611f7e565b611f7b846110c0611f7461082c565b89906128f5565b90505b611f883382612ce7565b611f9061285f565b60408051878152602081018390528151600160a060020a0388169233927ff5681f9d0db1b911ac18ee83d515a1cf1051853a9eae418316a2fdf7dea427c5929081900390910190a3505050505050565b611fe8611554565b600160a060020a031633600160a060020a031614612050576040805160e560020a62461bcd02815260206004820152600e60248201527f6e6f7420676f7665726e616e6365000000000000000000000000000000000000604482015290519081900360640190fd5b600160a060020a038216600081815260686020526040808220805460ff191685151590811790915590519092917ffc2e7375e815d084de88de8e8e356e71102275019b06a1b529eee0c8ab57cd3491a35050565b6120ac611554565b600160a060020a031633600160a060020a031614612114576040805160e560020a62461bcd02815260206004820152600e60248201527f6e6f7420676f7665726e616e6365000000000000000000000000000000000000604482015290519081900360640190fd5b606980547fffffffffffffffffffffff00ffffffffffffffffffffffffffffffffffffffff1674010000000000000000000000000000000000000000831515908102919091179091556040517f2e5a1930def2f974808cd3dd28f6606d8d2cb5d7adb78f6761ea31062ced1a3390600090a250565b60686020526000908152604090205460ff1681565b6121a6611554565b600160a060020a031633600160a060020a03161461220e576040805160e560020a62461bcd02815260206004820152600e60248201527f6e6f7420676f7665726e616e6365000000000000000000000000000000000000604482015290519081900360640190fd5b60678054600160a060020a0383811673ffffffffffffffffffffffffffffffffffffffff19831681179093556040519116919082907ff6a8d961ba4f41874e38ad8bed56ca4bcf2356a3dd5bfa626b8a73a0da9f5c6990600090a35050565b606954600160a060020a031681565b612284611554565b600160a060020a031633600160a060020a031614806122ad5750606754600160a060020a031633145b612301576040805160e560020a62461bcd02815260206004820152600e60248201527f6e6f742073747261746567697374000000000000000000000000000000000000604482015290519081900360640190fd5b606554600160a060020a0382811691161415612367576040805160e560020a62461bcd02815260206004820152600e60248201527f63616e6e6f742073616c76616765000000000000000000000000000000000000604482015290519081900360640190fd5b8061240f612373611554565b604080517f70a082310000000000000000000000000000000000000000000000000000000081523060048201529051600160a060020a038516916370a08231916024808301926020929190829003018186803b1580156123d257600080fd5b505afa1580156123e6573d6000803e3d6000fd5b505050506040513d60208110156123fc57600080fd5b5051600160a060020a0384169190612b31565b5050565b61241b611554565b600160a060020a031633600160a060020a031614806124445750606754600160a060020a031633145b612498576040805160e560020a62461bcd02815260206004820152600e60248201527f6e6f742073747261746567697374000000000000000000000000000000000000604482015290519081900360640190fd5b60695474010000000000000000000000000000000000000000900460ff161561250b576040805160e560020a62461bcd02815260206004820152600e60248201527f656d657267656e6379206d6f6465000000000000000000000000000000000000604482015290519081900360640190fd5b606954600160a060020a031661252057612659565b606554604080517f70a082310000000000000000000000000000000000000000000000000000000081523060048201529051600160a060020a039092169160009183916370a0823191602480820192602092909190829003018186803b15801561258957600080fd5b505afa15801561259d573d6000803e3d6000fd5b505050506040513d60208110156125b357600080fd5b50516069549091506125d290600160a060020a03848116911683612b31565b606960009054906101000a9004600160a060020a0316600160a060020a031663d0e30db06040518163ffffffff167c0100000000000000000000000000000000000000000000000000000000028152600401600060405180830381600087803b15801561263e57600080fd5b505af1158015612652573d6000803e3d6000fd5b5050505050505b565b600160a060020a03918216600090815260346020908152604080832093909416825291909152205490565b606654600160a060020a031681565b3390565b600160a060020a0383166126e15760405160e560020a62461bcd0281526004018080602001828103825260248152602001806135506024913960400191505060405180910390fd5b600160a060020a0382166127295760405160e560020a62461bcd02815260040180806020018281038252602281526020018061344b6022913960400191505060405180910390fd5b600160a060020a03808416600081815260346020908152604080832094871680845294825291829020859055815185815291517f8c5be1e5ebec7d5bd14f71427d1e84f3dd0314c0f7b2291e5b200ac8c7c3b9259281900390910190a3505050565b303b1590565b600054610100900460ff16806127aa57506127aa61278b565b806127b8575060005460ff16155b6127f65760405160e560020a62461bcd02815260040180806020018281038252602e815260200180613493602e913960400191505060405180910390fd5b600054610100900460ff16158015612821576000805460ff1961ff0019909116610100171660011790555b612829612ddc565b6128338383612e80565b801561090e576000805461ff0019169055505050565b6038805460ff191660ff92909216919091179055565b336000908152606a60205260409020439055565b6000612880848484612f5b565b6128eb8461288c612695565b6113e1856040518060600160405280602881526020016134e260289139600160a060020a038a166000908152603460205260408120906128ca612695565b600160a060020a031681526020810191909152604001600020549190612bb1565b5060019392505050565b60008261290457506000610826565b8282028284828161291157fe5b0414610fba5760405160e560020a62461bcd0281526004018080602001828103825260218152602001806134c16021913960400191505060405180910390fd5b6000610fba83836040518060400160405280601a81526020017f536166654d6174683a206469766973696f6e206279207a65726f0000000000008152506130be565b600160a060020a0382166129db5760405160e560020a62461bcd02815260040180806020018281038252602181526020018061350a6021913960400191505060405180910390fd5b6129e78260008361090e565b612a248160405180606001604052806022815260200161342960229139600160a060020a0385166000908152603360205260409020549190612bb1565b600160a060020a038316600090815260336020526040902055603554612a4a9082612a92565b603555604080518281529051600091600160a060020a038516917fddf252ad1be2c89b69c2b068fc378daa952ba7f163c4a11628f55a4df523b3ef9181900360200190a35050565b6000610fba83836040518060400160405280601e81526020017f536166654d6174683a207375627472616374696f6e206f766572666c6f770000815250612bb1565b600082820183811015610fba576040805160e560020a62461bcd02815260206004820152601b60248201527f536166654d6174683a206164646974696f6e206f766572666c6f770000000000604482015290519081900360640190fd5b60408051600160a060020a038416602482015260448082018490528251808303909101815260649091019091526020810180517bffffffffffffffffffffffffffffffffffffffffffffffffffffffff167fa9059cbb0000000000000000000000000000000000000000000000000000000017905261090e908490613126565b60008184841115612c435760405160e560020a62461bcd0281526004018080602001828103825283818151815260200191508051906020019080838360005b83811015612c08578181015183820152602001612bf0565b50505050905090810190601f168015612c355780820380516001836020036101000a031916815260200191505b509250505060405180910390fd5b505050900390565b6000610822612c58612695565b8484612f5b565b60408051600160a060020a0380861660248301528416604482015260648082018490528251808303909101815260849091019091526020810180517bffffffffffffffffffffffffffffffffffffffffffffffffffffffff167f23b872dd0000000000000000000000000000000000000000000000000000000017905261154e908590613126565b600160a060020a038216612d45576040805160e560020a62461bcd02815260206004820152601f60248201527f45524332303a206d696e7420746f20746865207a65726f206164647265737300604482015290519081900360640190fd5b612d516000838361090e565b603554612d5e9082612ad4565b603555600160a060020a038216600090815260336020526040902054612d849082612ad4565b600160a060020a03831660008181526033602090815260408083209490945583518581529351929391927fddf252ad1be2c89b69c2b068fc378daa952ba7f163c4a11628f55a4df523b3ef9281900390910190a35050565b600054610100900460ff1680612df55750612df561278b565b80612e03575060005460ff16155b612e415760405160e560020a62461bcd02815260040180806020018281038252602e815260200180613493602e913960400191505060405180910390fd5b600054610100900460ff16158015612e6c576000805460ff1961ff0019909116610100171660011790555b80156113e6576000805461ff001916905550565b600054610100900460ff1680612e995750612e9961278b565b80612ea7575060005460ff16155b612ee55760405160e560020a62461bcd02815260040180806020018281038252602e815260200180613493602e913960400191505060405180910390fd5b600054610100900460ff16158015612f10576000805460ff1961ff0019909116610100171660011790555b8251612f23906036906020860190613372565b508151612f37906037906020850190613372565b506038805460ff19166012179055801561090e576000805461ff0019169055505050565b600160a060020a038316612fa35760405160e560020a62461bcd02815260040180806020018281038252602581526020018061352b6025913960400191505060405180910390fd5b600160a060020a038216612feb5760405160e560020a62461bcd0281526004018080602001828103825260238152602001806134066023913960400191505060405180910390fd5b612ff683838361090e565b6130338160405180606001604052806026815260200161346d60269139600160a060020a0386166000908152603360205260409020549190612bb1565b600160a060020a0380851660009081526033602052604080822093909355908416815220546130629082612ad4565b600160a060020a0380841660008181526033602090815260409182902094909455805185815290519193928716927fddf252ad1be2c89b69c2b068fc378daa952ba7f163c4a11628f55a4df523b3ef92918290030190a3505050565b600081836131105760405160e560020a62461bcd028152602060048201818152835160248401528351909283926044909101919085019080838360008315612c08578181015183820152602001612bf0565b50600083858161311c57fe5b0495945050505050565b606061317b826040518060400160405280602081526020017f5361666545524332303a206c6f772d6c6576656c2063616c6c206661696c656481525085600160a060020a03166131da9092919063ffffffff16565b80519091501561090e5780806020019051602081101561319a57600080fd5b505161090e5760405160e560020a62461bcd02815260040180806020018281038252602a815260200180613574602a913960400191505060405180910390fd5b6060610fb78484600085856131ee85613303565b613242576040805160e560020a62461bcd02815260206004820152601d60248201527f416464726573733a2063616c6c20746f206e6f6e2d636f6e7472616374000000604482015290519081900360640190fd5b6000606086600160a060020a031685876040518082805190602001908083835b602083106132815780518252601f199092019160209182019101613262565b6001836020036101000a03801982511681845116808217855250505050505090500191505060006040518083038185875af1925050503d80600081146132e3576040519150601f19603f3d011682016040523d82523d6000602084013e6132e8565b606091505b50915091506132f8828286613309565b979650505050505050565b3b151590565b60608315613318575081610fba565b8251156133285782518084602001fd5b60405160e560020a62461bcd028152602060048201818152845160248401528451859391928392604401919085019080838360008315612c08578181015183820152602001612bf0565b828054600181600116156101000203166002900490600052602060002090601f016020900481019282601f106133b357805160ff19168380011785556133e0565b828001600101855582156133e0579182015b828111156133e05782518255916020019190600101906133c5565b506133ec9291506133f0565b5090565b5b808211156133ec57600081556001016133f156fe45524332303a207472616e7366657220746f20746865207a65726f206164647265737345524332303a206275726e20616d6f756e7420657863656564732062616c616e636545524332303a20617070726f766520746f20746865207a65726f206164647265737345524332303a207472616e7366657220616d6f756e7420657863656564732062616c616e6365496e697469616c697a61626c653a20636f6e747261637420697320616c726561647920696e697469616c697a6564536166654d6174683a206d756c7469706c69636174696f6e206f766572666c6f7745524332303a207472616e7366657220616d6f756e74206578636565647320616c6c6f77616e636545524332303a206275726e2066726f6d20746865207a65726f206164647265737345524332303a207472616e736665722066726f6d20746865207a65726f206164647265737345524332303a20617070726f76652066726f6d20746865207a65726f20616464726573735361666545524332303a204552433230206f7065726174696f6e20646964206e6f74207375636365656445524332303a2064656372656173656420616c6c6f77616e63652062656c6f77207a65726fa2646970667358221220d94c7782262828216acf51b356eeb3196a48a56aa36a253bc57a8e3243734e8664736f6c634300060c0033",
  "source": "// SPDX-License-Identifier: MIT\npragma solidity 0.6.12;\n\nimport \"@openzeppelin/contracts-upgradeable/math/SafeMathUpgradeable.sol\";\nimport \"@openzeppelin/contracts-upgradeable/proxy/Initializable.sol\";\nimport \"@openzeppelin/contracts-upgradeable/token/ERC20/IERC20Upgradeable.sol\";\nimport \"@openzeppelin/contracts-upgradeable/token/ERC20/ERC20Upgradeable.sol\";\nimport \"@openzeppelin/contracts-upgradeable/token/ERC20/SafeERC20Upgradeable.sol\";\nimport \"@openzeppelin/contracts-upgradeable/token/ERC20/ERC20Upgradeable.sol\";\n\nimport \"./interfaces/IVault.sol\";\nimport \"./interfaces/IController.sol\";\nimport \"./interfaces/IStrategy.sol\";\n\n/**\n * @notice Yearn style vault which earns yield for a specific token.\n *\n * Vaults are capital pools of one single token which seaks yield from the market.\n * A vault manages multiple strategies and at most one strategy is active at a time.\n */\ncontract Vault is ERC20Upgradeable, IVault {\n    using SafeERC20Upgradeable for IERC20Upgradeable;\n    using SafeMathUpgradeable for uint256;\n\n    address public override want;\n    address public override controller;\n    address public override strategist;\n    mapping(address => bool) public override approvedStrategies;\n    address public override activeStrategy;\n    bool public override emergencyMode;\n    /**\n     * Add a lock to each address so that it could not perform deposit, withdraw, or transfer in the same block.\n     * Borrows ideas from Badger Sett.\n     * https://github.com/Badger-Finance/badger-system/blob/master/contracts/badger-sett/Sett.sol\n     */\n    mapping(address => uint256) public lockBlocks;\n\n    uint256[50] private __gap;\n\n    event StrategistUpdated(address indexed oldStrategist, address indexed newStrategist);\n    event StrategyUpdated(address indexed strategy, bool indexed approved);\n    event ActiveStrategyUpdated(address indexed oldStrategy, address indexed newStrategy);\n    event EmergencyModeUpdated(bool indexed active);\n    event Deposited(address indexed user, address indexed token, uint256 amount, uint256 shareAmount);\n    event Withdrawn(address indexed user, address indexed token, uint256 amount, uint256 shareAmount);\n\n    /**\n     * @dev Initializes the Vault contract. Can be called only once.\n     * @param _want The token that the vault pools to seak return.\n     * @param _controller The Controller contract that manages the vaults.\n     * @param _nameOverride Provides a custom vault token name. Use default if empty.\n     * @param _symbolOverride Provides a custom vault token symbol. Use default if empty.\n     */\n    function initialize(address _want, address _controller, string memory _nameOverride, string memory _symbolOverride) public initializer {\n        require(_want != address(0x0), \"want not set\");\n        require(_controller != address(0x0), \"controller not set\");\n\n        want = _want;\n        controller = _controller;\n        strategist = msg.sender;\n\n        ERC20Upgradeable token = ERC20Upgradeable(_want);\n        string memory name;\n        string memory symbol;\n        if (bytes(_nameOverride).length > 0) {\n            name = _nameOverride;\n        } else {\n            name = string(abi.encodePacked(\"ACoconut \", token.name()));\n        }\n        if (bytes(_symbolOverride).length > 0) {\n            symbol = _symbolOverride;\n        } else {\n            symbol = string(abi.encodePacked(\"ac\", token.symbol()));\n        }\n        __ERC20_init(name, symbol);\n        // The vault should have the same decimals as the want token.\n        _setupDecimals(token.decimals());\n    }\n\n    /**\n     * @dev Returns the governance of the vault.\n     * Note that Controller and all vaults share the same governance, so this is\n     * a shortcut to return Controller.governance().\n     */\n    function governance() public view override returns (address) {\n        return IController(controller).governance();\n    }\n\n    modifier onlyGovernance() {\n        require(msg.sender == governance(), \"not governance\");\n        _;\n    }\n\n    modifier onlyStrategist() {\n        require(msg.sender == governance() || msg.sender == strategist, \"not strategist\");\n        _;\n    }\n\n    modifier notEmergencyMode() {\n        require(!emergencyMode, \"emergency mode\");\n        _;\n    }\n\n    /**\n     * @dev Checks whether the current block is locked for this address.\n     * A block is locked for an address if it performs deposit, withdraw or transfer in this block.\n     */\n    modifier blockUnlocked() {\n        require(lockBlocks[msg.sender] < block.number, \"block locked\");\n        _;\n    }\n\n    function _updateLockBlock() internal {\n        lockBlocks[msg.sender] = block.number;\n    }\n\n    /**\n     * @dev Returns the total balance in both vault and strategy.\n     */\n    function balance() public view returns (uint256) {\n        IERC20Upgradeable token = IERC20Upgradeable(want);\n        return activeStrategy == address(0x0) ? token.balanceOf(address(this)) :\n            token.balanceOf(address(this)).add(IStrategy(activeStrategy).balanceOf());\n    }\n\n    /**\n     * @dev Updates the strategist address. Only governance can update strategist.\n     * Each vault has its own strategist to perform daily permissioned opertions.\n     * Vault and its strategies managed share the same strategist.\n     */\n    function setStrategist(address _strategist) public onlyGovernance {\n        address oldStrategist = strategist;\n        strategist = _strategist;\n        emit StrategistUpdated(oldStrategist, _strategist);\n    }\n\n    /**\n     * @dev Updates the emergency mode. Only governance or strategist can update emergency mode.\n     */\n    function setEmergencyMode(bool _active) public onlyGovernance {\n        emergencyMode = _active;\n        emit EmergencyModeUpdated(_active);\n    }\n\n    /**\n     * @dev Approves or revokes strategy. Only governance can approve or revoke strategies.\n     * Note that this does not affect the current active strategy and it takes effect only\n     * on the next time an active strategy is selected.\n     * @param _strategy Strategy to approve or revoke.\n     * @param _approved If true, the strategy can be selected as active strategy.\n     */\n    function setStrategy(address _strategy, bool _approved) public onlyGovernance {\n        approvedStrategies[_strategy] = _approved;\n        emit StrategyUpdated(_strategy, _approved);\n    }\n\n    /**\n     * @dev Updates the active strategy of the vault. Only strategist can update the active strategy.\n     * Only approved strategy can be selected as active strategy.\n     * No new strategy is accepted in emergency mode.\n     */\n    function setActiveStrategy(address _strategy) public onlyStrategist notEmergencyMode {\n        // The new active strategy can be zero address, which means withhold all assets in the vault.\n        // Otherwise, the new strategy must be approved by governance before hand.\n        require(_strategy == address(0x0) || approvedStrategies[_strategy], \"strategy not approved\");\n        address oldStrategy = activeStrategy;\n        require(oldStrategy != _strategy, \"same strategy\");\n\n        // If the vault has an existing strategy, withdraw all assets from it.\n        if (oldStrategy != address(0x0)) {\n            IStrategy(oldStrategy).withdrawAll();\n        }\n\n        activeStrategy = _strategy;\n        // Starts earning once a new strategy is set.\n        earn();\n        emit ActiveStrategyUpdated(oldStrategy, _strategy);\n    }\n\n    /**\n     * @dev Starts earning and deposits all current balance into strategy.\n     * Only strategist or governance can call this function.\n     */\n    function earn() public onlyStrategist notEmergencyMode {\n        if (activeStrategy == address(0x0)) return;\n        IERC20Upgradeable token = IERC20Upgradeable(want);\n        uint256 _bal = token.balanceOf(address(this));\n        token.safeTransfer(activeStrategy, _bal);\n        IStrategy(activeStrategy).deposit();\n    }\n\n    /**\n     * @dev Harvest yield from the strategy if set.\n     * Only strategist or governance can call this function.\n     */\n    function harvest() public onlyStrategist {\n        require(activeStrategy != address(0x0), \"no strategy\");\n        IStrategy(activeStrategy).harvest();\n    }\n\n    /**\n     * @dev Deposit some balance to the vault.\n     */\n    function deposit(uint256 _amount) public virtual notEmergencyMode blockUnlocked {\n        require(_amount > 0, \"zero amount\");\n        IERC20Upgradeable token = IERC20Upgradeable(want);\n        // If MAX is provided, deposits all balance.\n        if (_amount == uint256(-1)) {\n            _amount = token.balanceOf(msg.sender);\n        }\n\n        uint256 _pool = balance();\n        uint256 _before = token.balanceOf(address(this));\n        token.safeTransferFrom(msg.sender, address(this), _amount);\n        uint256 _after = token.balanceOf(address(this));\n        _amount = _after.sub(_before); // Additional check for deflationary tokens\n        uint256 shares = 0;\n        if (totalSupply() == 0) {\n            shares = _amount;\n        } else {\n            shares = (_amount.mul(totalSupply())).div(_pool);\n        }\n        _mint(msg.sender, shares);\n        _updateLockBlock();\n\n        emit Deposited(msg.sender, address(token), _amount, shares);\n    }\n\n    /**\n     * @dev Withdraws some balance out of the vault.\n     */\n    function withdraw(uint256 _shares) public virtual blockUnlocked {\n        require(_shares > 0, \"zero amount\");\n        IERC20Upgradeable token = IERC20Upgradeable(want);\n        // If MAX is provided, withdraws all shares.\n        if (_shares == uint256(-1)) {\n            _shares = balanceOf(msg.sender);\n        }\n        uint256 r = (balance().mul(_shares)).div(totalSupply());\n        _burn(msg.sender, _shares);\n\n        // Check balance\n        uint256 b = token.balanceOf(address(this));\n        if (b < r) {\n            uint256 _withdraw = r.sub(b);\n            // Ideally this should not happen. Put here for extra safety.\n            require(activeStrategy != address(0x0), \"no strategy\");\n            IStrategy(activeStrategy).withdraw(_withdraw);\n            uint256 _after = token.balanceOf(address(this));\n            uint256 _diff = _after.sub(b);\n            if (_diff < _withdraw) {\n                r = b.add(_diff);\n            }\n        }\n\n        token.safeTransfer(msg.sender, r);\n        _updateLockBlock();\n        emit Withdrawn(msg.sender, address(token), r, _shares);\n    }\n\n    /**\n     * @dev Add lock to transfer so that it can not happen in the same block as deposit and withdraw.\n     */\n    function transfer(address recipient, uint256 amount) public virtual override blockUnlocked returns (bool) {\n        _updateLockBlock();\n        return super.transfer(recipient, amount);\n    }\n\n    /**\n     * @dev Add lock to transfer so that it can not happen in the same block as deposit and withdraw.\n     */\n    function transferFrom(address sender, address recipient, uint256 amount) public virtual override blockUnlocked returns (bool) {\n        _updateLockBlock();\n        return super.transferFrom(sender, recipient, amount);\n    }\n\n    /**\n     * @dev Used to salvage any ETH deposited into the vault by mistake.\n     */\n    function salvage() public onlyStrategist {\n        uint256 amount = address(this).balance;\n        address payable target = payable(governance());\n        target.transfer(amount);\n    }\n\n    /**\n     * @dev Used to salvage any token deposited into the vault by mistake.\n     * @param _tokenAddress Token address to salvage.\n     */\n    function salvageToken(address _tokenAddress) public onlyStrategist {\n        require(_tokenAddress != want, \"cannot salvage\");\n\n        IERC20Upgradeable token = IERC20Upgradeable(_tokenAddress);\n        token.safeTransfer(governance(), token.balanceOf(address(this)));\n    }\n\n    /**\n     * @dev Returns the number of vault token per share is worth.\n     */\n    function getPricePerFullShare() public view returns (uint256) {\n        if (totalSupply() == 0) return 0;\n        return balance().mul(1e18).div(totalSupply());\n    }\n\n    function notifyRewardAmount(uint256 _rewardAmount) public virtual override {}\n}\n",
  "sourcePath": "/Users/shengdading/git/acSaving/contracts/Vault.sol",
  "compiler": {
    "name": "solc",
    "version": "0.6.12+commit.27d51765.Emscripten.clang"
  },
  "schemaVersion": "3.0.23",
  "updatedAt": "2020-12-14T18:18:59.243Z",
  "devdoc": {
    "kind": "dev",
    "methods": {
      "allowance(address,address)": {
        "details": "See {IERC20-allowance}."
      },
      "approve(address,uint256)": {
        "details": "See {IERC20-approve}. Requirements: - `spender` cannot be the zero address."
      },
      "balance()": {
        "details": "Returns the total balance in both vault and strategy."
      },
      "balanceOf(address)": {
        "details": "See {IERC20-balanceOf}."
      },
      "decimals()": {
        "details": "Returns the number of decimals used to get its user representation. For example, if `decimals` equals `2`, a balance of `505` tokens should be displayed to a user as `5,05` (`505 / 10 ** 2`). Tokens usually opt for a value of 18, imitating the relationship between Ether and Wei. This is the value {ERC20} uses, unless {_setupDecimals} is called. NOTE: This information is only used for _display_ purposes: it in no way affects any of the arithmetic of the contract, including {IERC20-balanceOf} and {IERC20-transfer}."
      },
      "decreaseAllowance(address,uint256)": {
        "details": "Atomically decreases the allowance granted to `spender` by the caller. This is an alternative to {approve} that can be used as a mitigation for problems described in {IERC20-approve}. Emits an {Approval} event indicating the updated allowance. Requirements: - `spender` cannot be the zero address. - `spender` must have allowance for the caller of at least `subtractedValue`."
      },
      "deposit(uint256)": {
        "details": "Deposit some balance to the vault."
      },
      "earn()": {
        "details": "Starts earning and deposits all current balance into strategy. Only strategist or governance can call this function."
      },
      "getPricePerFullShare()": {
        "details": "Returns the number of vault token per share is worth."
      },
      "governance()": {
        "details": "Returns the governance of the vault. Note that Controller and all vaults share the same governance, so this is a shortcut to return Controller.governance()."
      },
      "harvest()": {
        "details": "Harvest yield from the strategy if set. Only strategist or governance can call this function."
      },
      "increaseAllowance(address,uint256)": {
        "details": "Atomically increases the allowance granted to `spender` by the caller. This is an alternative to {approve} that can be used as a mitigation for problems described in {IERC20-approve}. Emits an {Approval} event indicating the updated allowance. Requirements: - `spender` cannot be the zero address."
      },
      "initialize(address,address,string,string)": {
        "details": "Initializes the Vault contract. Can be called only once.",
        "params": {
          "_controller": "The Controller contract that manages the vaults.",
          "_nameOverride": "Provides a custom vault token name. Use default if empty.",
          "_symbolOverride": "Provides a custom vault token symbol. Use default if empty.",
          "_want": "The token that the vault pools to seak return."
        }
      },
      "name()": {
        "details": "Returns the name of the token."
      },
      "notifyRewardAmount(uint256)": {
        "details": "Notifies the vault that a new reward is added.",
        "params": {
          "_rewardAmount": "Amount of reward that is newly added to the vault."
        }
      },
      "salvage()": {
        "details": "Used to salvage any ETH deposited into the vault by mistake."
      },
      "salvageToken(address)": {
        "details": "Used to salvage any token deposited into the vault by mistake.",
        "params": {
          "_tokenAddress": "Token address to salvage."
        }
      },
      "setActiveStrategy(address)": {
        "details": "Updates the active strategy of the vault. Only strategist can update the active strategy. Only approved strategy can be selected as active strategy. No new strategy is accepted in emergency mode."
      },
      "setEmergencyMode(bool)": {
        "details": "Updates the emergency mode. Only governance or strategist can update emergency mode."
      },
      "setStrategist(address)": {
        "details": "Updates the strategist address. Only governance can update strategist. Each vault has its own strategist to perform daily permissioned opertions. Vault and its strategies managed share the same strategist."
      },
      "setStrategy(address,bool)": {
        "details": "Approves or revokes strategy. Only governance can approve or revoke strategies. Note that this does not affect the current active strategy and it takes effect only on the next time an active strategy is selected.",
        "params": {
          "_approved": "If true, the strategy can be selected as active strategy.",
          "_strategy": "Strategy to approve or revoke."
        }
      },
      "symbol()": {
        "details": "Returns the symbol of the token, usually a shorter version of the name."
      },
      "totalSupply()": {
        "details": "See {IERC20-totalSupply}."
      },
      "transfer(address,uint256)": {
        "details": "Add lock to transfer so that it can not happen in the same block as deposit and withdraw."
      },
      "transferFrom(address,address,uint256)": {
        "details": "Add lock to transfer so that it can not happen in the same block as deposit and withdraw."
      },
      "withdraw(uint256)": {
        "details": "Withdraws some balance out of the vault."
      }
    },
    "stateVariables": {
      "activeStrategy": {
        "details": "Returns the current active strategy of the vault. Only strategist can select active strategy for the vault. At most strategy is active at a time."
      },
      "approvedStrategies": {
        "details": "Checks whether a strategy is approved on the vault. Only governance can approve and revoke strategies.",
        "params": {
          "_strategy": "Strategy address to check."
        },
        "return": "Whether the strategy is approved on the vault."
      },
      "controller": {
        "details": "Returns the Controller address."
      },
      "emergencyMode": {
        "details": "Whether the vault is now in emergency mode. When the vault is in emergency mode: 1. No deposit is allowed (but withdraw is allowed); 2. No new active strategy can be set."
      },
      "strategist": {
        "details": "Returns the strategist of the vault. Each vault has its own strategist to perform daily permissioned opertions. Vault and its strategies managed share the same strategist."
      },
      "want": {
        "details": "Returns the token that the vault pools."
      }
    },
    "version": 1
  },
  "userdoc": {
    "kind": "user",
    "methods": {
      "lockBlocks(address)": {
        "notice": "Add a lock to each address so that it could not perform deposit, withdraw, or transfer in the same block. Borrows ideas from Badger Sett. https://github.com/Badger-Finance/badger-system/blob/master/contracts/badger-sett/Sett.sol"
      }
    },
    "notice": "Yearn style vault which earns yield for a specific token. Vaults are capital pools of one single token which seaks yield from the market. A vault manages multiple strategies and at most one strategy is active at a time.",
    "version": 1
  }
}